:020000040800F2
:10000000C80E002001010008090100080B010008CA
:100010000D0100080F010008110100080000000098
:1000200000000000000000000000000013010008B4
:100030001501000800000000170100081901000860
:100040001B0100081B0100081B0100081B01000820
:100050001B0100081B0100081B0100081B01000810
:100060001B0100081B0100081B0100081B01000800
:100070001B0100081B0100081B0100081B010008F0
:100080001B0100081B0100081B0100089923000840
:10009000B52300081B0100081B0100081B01000814
:1000A0001B0100081B0100081B0100081B010008C0
:1000B000F92000081B0100081B0100081B010008B3
:1000C0001B0100081B0100081B0100081B010008A0
:1000D0001B0100081B0100081B0100081B01000890
:1000E0001B0100081B0100081B010008DFF80CD0F1
:1000F00000F022FC0048004745350008C80E0020EB
:100100000648804706480047FEE7FEE7FEE7FEE7B1
:10011000FEE7FEE7FEE7FEE7FEE7FEE74120000818
:10012000ED000008D2B201E000F8012B491EFBD21D
:1001300070470022F6E710B513460A4604461946F2
:10014000FFF7F0FF204610BDF0B480EA0102D40FA3
:100150004200B2EB410F02D20246084611464A0065
:1001600042D0C30DDDB2C1F3C752AD1A202D35DA2E
:10017000C1F3160141F4000204B15242C5F1200658
:1001800002FA06F12A411044B3EBD05F23D0C4B188
:10019000012DA0EBC35009DCF0BC4FF0004202EA95
:1001A000C352DBB200F5000000F00BBB400000F1D1
:1001B000807000EBC350A0F1807040EAD17049001C
:1001C00009E0490841EAC071A0EBC35000F5000006
:1001D000400800EBC350F0BC00F0EABA61420122D3
:1001E00002EB4101001BF6E7F0BC704781F00041D3
:1001F000AAE780F00040A7E780EA010210B502F00C
:100200000043400022D04A001FD0010E01EB1261D2
:10021000C0F35600C2F3560240F4000042F400025C
:10022000A0FB022000047F39140400D0401C50EAD7
:10023000124001D44000491EC2B20C0604EBD0109B
:10024000401C4008802A02D003E0002010BD20F0AE
:100250000100002900DA0020184310BD30B480EA04
:10026000010202F0004530F0004221F0004013D0BE
:1002700090B1C30DD40DC2F31601C0F31600E41AF9
:1002800041F4000140F400027D34914201D3641C2A
:1002900000E04900002C02DA30BC002070474FF427
:1002A00000000023914201D3891A034340084FEA1A
:1002B0004101F7D151B1914202D14FF0004105E027
:1002C00002D24FF0010101E06FF0010103EBC450D5
:1002D000284430BC00F06CBA2DE9FE4F804681EA1C
:1002E0000300C00F0C46009021F0004123F00045B0
:1002F000B8EB0200A94105D24046214690461C4673
:100300000B46024623F00040104347D0270DC7F3A9
:100310000A00C3F30A510290401A019040286BDA98
:10032000C3F3130040F4801B0098924620B10023D1
:10033000D2EB030A63EB0B0B01985946C0F1400264
:10034000504600F014FA06460D4650465946019AAA
:1003500000F01CFA10EB08006141002487EA1152FA
:1003600084EAE7731A4340D0009A62B3019A012AE3
:100370004FEA075215DC001B61EB02014FF000420F
:1003800002EA0752CDE90042001C41F580113246D5
:100390002B4600F053FA03B0BDE8F08F40462146EB
:1003A000F9E7001B61EB0201001C41F58013001806
:1003B0005B412018A2F5001747EB030140EAD57016
:1003C000B6196D4111E06D084FEA360645EAC07571
:1003D0004FEA0752001B61EB0201001C41F580113E
:1003E00049084FEA30000019514132462B4603B00C
:1003F000BDE8F04F00F013BA00980122400000233E
:10040000D0EB020263EBE073009821464FEAE07400
:10041000B8EB000061EB0401E9E783F000435BE720
:1004200081F0004158E72DE9FE4F81EA030404F012
:10043000004421F0004100944FF0000B23F00043F2
:1004400050EA01045ED052EA03045BD0C3F30A54BD
:10045000C1F30A552C44A4F2F3340194A0FB0254D6
:10046000C1F3130141F48011C3F3130343F4801368
:1004700001FB024400FB034E840A970A44EA8154BC
:1004800047EA8357A4FB076802958D0A05FB078599
:100490004FEA932C04FB0C542705029D4FEA0658A3
:1004A00047EA1637B5EB08056EEB070C870E920E80
:1004B00047EA811742EA8312A7FB0201B6EB0B0160
:1004C00064EB00042B0D43EA0C335E1844EB1C5024
:1004D000DA465146E7FB0201C5F313044FEA0B333A
:1004E00043EA14534FEA0432019C43EA0603A4F1A1
:1004F0000C040294009CCDE900B400F09FF903B015
:10050000BDE8F08F00200146F9E72DE9F04D81EAC2
:10051000030404F0004B21F0004514464FF0000A9C
:1005200023F0004150EA050220D054EA01021DD018
:10053000C5F30A570246C5F31303C1F31300C1F311
:100540000A5640F4801543F48013A7EB0608101BED
:10055000D64608F2FD3873EB050002D308F1010816
:1005600001E092185B41B8F1000F03DA0020014668
:10057000BDE8F08D00204FF48011064684460EE061
:10058000171B73EB050705D3121B63EB050306432B
:100590004CEA010C49084FEA300092185B4150EADE
:1005A0000107EDD152EA030012D082EA040083EA87
:1005B0000501084305D0101BAB4106D201220023E0
:1005C00006E000224FF0004302E06FF001025310FA
:1005D0001AEB06004CEB085110EB0A0041EB0B0143
:1005E000BDE8F04D00F01BB9C10F80EAE07008448F
:1005F000CA079623002100F0E4B896230022114692
:1006000000F0DFB80EB5C10F80EAE0700844CA07F9
:10061000002140F233438DE80E000A460B4600F0FD
:100620000DF903B000BD00F0004220F00040C10D04
:10063000C0F3160040F400007F2901DA0020704763
:10064000962903DCC1F19601C84001E09639884043
:10065000002AF4D04042704700F0004230F00040E1
:100660000AD0C10D01F56071C0F3160042EA0151D4
:10067000C20840071143704700200146704701F04F
:10068000004330B421F0004150EA010206D00A0DC7
:10069000A2F56072C1F31301002A02DC30BC002015
:1006A0007047440F44EAC104C100E01830BC00EBBD
:1006B000C25000F07DB80000002801DBC0F100400E
:1006C000002901DBC1F1004181427047002801DBB4
:1006D000C0F10040002901DBC1F1004188427047B0
:1006E00030B50B46014600202022012409E021FA02
:1006F00002F59D4205D303FA02F5491B04FA02F5FF
:100700002844151EA2F10102F1DC30BD2DE9F05F95
:100710000546002092469B46884606468146402470
:100720001BE0284641464746224600F017F953464B
:100730005A46C01A914110D311461846224600F07D
:1007400016F82D1A67EB01084F46224601200021BA
:1007500000F00DF817EB00094E41201EA4F1010432
:10076000DFDC484631462A464346BDE8F09F202A52
:1007700004DB203A00FA02F1002070479140C2F1F8
:10078000200320FA03F3194390407047202A06DB28
:10079000CB17203A41FA02F043EAE07306E041FA4F
:1007A00002F3D040C2F1200291400843194670473D
:1007B0000029A8BF7047401C490008BF20F0010075
:1007C000704710B4B0FA80FC00FA0CF050EA010453
:1007D00004BF10BC704749B1CCF1200421FA04F4E5
:1007E00011FA0CF118BF012121430843A3EB0C01BE
:1007F000CB1D4FEA00614FEA102042BF002010BC21
:10080000704700EBC35010440029A4BF10BC7047D0
:10081000401C490008BF20F0010010BC704710B513
:10082000141E73F1000408DA401C41F10001921813
:100830005B411A4301D120F0010010BD2DE9F04DBC
:1008400092469B4611B1B1FA81F202E0B0FA80F211
:1008500020329046FFF78BFF04460F4640EA0A001D
:1008600041EA0B0153465A46084313D0114653EA56
:10087000010019D0C8F14002504600F06FF805465B
:100880000E46504659464246FFF771FF084305D0D1
:10089000012004E020463946BDE8F08D00200543E4
:1008A00046EAE0762C4337430A986305E40AA0EB56
:1008B00008000022FD0A44EA47540A3002D500200D
:1008C0000146E9E7010510196941DDE9084500190C
:1008D0006941BDE8F04DA2E7C1F30A52C1F313012B
:1008E00040F2FF3341F480119A4202DA00200146BF
:1008F000704740F233439A42A2F2334202DC524242
:1009000000F02CB8FFF733BF30B5041E71F10004BE
:1009100004DB4FF00044404264EB0101141E73F10C
:10092000000405DB1C464FF00043524263EB040316
:10093000994208BF904230BD064C074D06E0E06882
:1009400040F0010394E8070098471034AC42F6D316
:10095000FFF7D0FB0838000828380008202A04DBFD
:10096000203A21FA02F00021704721FA02F3D04028
:10097000C2F12002914008431946704770B521F03A
:10098000004303430CD0C1F30A550024D5EB040502
:1009900064EB0403D617AD1AB34102DB0020014615
:1009A00070BD201841EB025170BD0EB540F23341CD
:1009B00002910021CDE900110A460B46FFF73EFFE8
:1009C00003B000BD70B5C1F30A5201F00045002428
:1009D000C1F3130140F2FF3341F480119A4201DA6E
:1009E000002070BD40F233439A42A2F2334203DC4E
:1009F0005242FFF7B3FF00E090402C43F1D0404259
:100A000070BD70B58C1810F8015B15F0070301D1AB
:100A100010F8013B2A1106D110F8012B03E010F861
:100A2000016B01F8016B5B1EF9D12B0705D4002384
:100A3000521E0DD401F8013BFAE710F8013BCB1A26
:100A4000921C03E013F8015B01F8015B521EF9D51B
:100A5000A142D8D3002070BD10B54FF4A06001F0C2
:100A60009BF940F26711C72001F01AFB00F006F86D
:100A700001F0CAFB02F09AFD10BD000000B589B07C
:100A80000121480601F092F90121092001F0AEF997
:100A900001214FF4EA1001F08FF84FF48070ADF8A7
:100AA000200048208DF8230003208DF8220008A99B
:100AB000384800F0F5FF4FF40070ADF82000182022
:100AC0008DF8230003208DF8220008A9314800F09A
:100AD000E7FF13208DF81C0001208DF81D00002079
:100AE0008DF81E0001208DF81F0007A801F01CF9E9
:100AF00014208DF81C0000208DF81D008DF81E00BC
:100B000001208DF81F0007A801F00EF9224800F01F
:100B100099F800208DF816008DF817008DF8180050
:100B20008DF819008DF81A0001208DF81B000020A7
:100B30008DF812008DF8130004208DF814000220A7
:100B40008DF815000420ADF8100004A9124800F03B
:100B5000B2F900208DF80A008DF80B0001208DF805
:100B60000C000020ADF80000ADF80200ADF8040064
:100B7000ADF80600ADF8080001208DF80D006846BC
:100B800000F07CF801220221034800F08BF909B043
:100B900000BD0000000C014000640040B1F5007F82
:100BA0003AD00FDC202928D006DC01291CD00429EA
:100BB0001DD0082940D11DE0402921D0B1F5807F0A
:100BC0003AD126E0B1F5004F31D006DCB1F5806FA7
:100BD00025D0B1F5006F2FD124E0B1F5803F12D0C0
:100BE000B1F5003F28D111E0154A826025E00822C6
:100BF000C26022E01022C2601FE0082202611CE0F5
:100C00001022026119E00822426016E010224260C0
:100C100013E00422426010E0042242600DE004224E
:100C200042600AE0002282610422426005E0002264
:100C300082610422426000E000BF00BF70470000F4
:100C40000101010010B504460B48844209D101217D
:100C5000480601F0BBF800214FF0007001F0B6F833
:100C600008E00121880601F0B1F800214FF0806012
:100C700001F0ACF810BD00000064004010B5002188
:100C8000837A012202FA03F13D4A126842F001021E
:100C90003B4B1A603A4A1C3212688A43384B1C3369
:100CA0001A60027BCAB9364A0C3212688A43344B46
:100CB0000C331A604288C38842EA0343304A403208
:100CC000847A42F834300288838842EA03432C4A0B
:100CD0004032847A02EBC4025360027B012A19D1AC
:100CE000274A0C3212680A43254B0C331A6042889B
:100CF000038842EA0343224A4032847A42F834307D
:100D0000C288838842EA03431D4A4032847A02EB58
:100D1000C4025360C27A3AB9194A121D12688A4352
:100D2000174B1B1D1A6006E0154A121D12680A4374
:100D3000134B1B1D1A60028932B9114A1432126812
:100D40008A430F4B14331A600289012A06D10C4AD8
:100D5000143212680A430A4B14331A60427B012A88
:100D600006D1074A1C3212680A43054B1C331A602D
:100D7000034A126822F00102014B1A6010BD000004
:100D80000066004070B504460D46002660692840A4
:100D9000002871D0B5F5807F5CD010DC082D35D0EF
:100DA00006DC012D20D0022D24D0042D72D127E0A5
:100DB000102D31D0202D35D0402D6BD138E0B5F538
:100DC000004F60D009DCB5F5007F49D0B5F5806FE4
:100DD0004CD0B5F5006F5DD14FE0B5F5803F2DD01B
:100DE000B5F5003F56D12FE0A0682D4900F0F8F985
:100DF000064651E0E068032100F0F2F906464BE0B8
:100E0000E068082100F0ECF9064645E0E0681021B2
:100E100000F0E6F906463FE02069032100F0E0F922
:100E2000064639E02069082100F0DAF9064633E089
:100E30002069102100F0D4F906462DE060680821F1
:100E400000F0CEF9064627E06068102100F0C8F9EE
:100E5000064621E0A069012100F0C2F906461BE028
:100E6000A069022100F0BCF9064615E0A069042142
:100E700000F0B6F906460FE00FE0A069702100F01F
:100E8000AFF9064608E06068042100F0A9F90646BB
:100E900002E0FFE7002600BF00E00026304670BDFC
:100EA000010101001AB143690B43436102E0436948
:100EB0008B434361704730B502460020002314681D
:100EC00024F002041460146844F00104146000E08B
:100ED0005B1C546804F001041CB94FF6FF74A34274
:100EE000F6D1546804F001040CB900206CE08C7950
:100EF000012C04D1146844F08004146003E01468E9
:100F000024F080041460CC79012C04D1146844F0DE
:100F10004004146003E0146824F0400414600C7A68
:100F2000012C04D1146844F02004146003E0146818
:100F300024F0200414604C7A012C04D1146844F08D
:100F40001004146003E0146824F0100414608C7A18
:100F5000012C04D1146844F00804146003E0146800
:100F600024F008041460CC7A012C04D1146844F0F5
:100F70000404146003E0146824F0040414608C7802
:100F8000A407CD7844EA05640D7944EA05444D7917
:100F900044EA05540D886D1E2C43D461146824F076
:100FA00001041460002300E05B1C546804F0010499
:100FB0001CB14FF6FF74A342F6D1546804F001044B
:100FC0000CB1002000E0012030BD10B500F5D87351
:100FD00003EB01131B6803F004031372137A53B974
:100FE00000F5D87303EB01131B6840F2FF7404EAA9
:100FF0005353136009E000F5D87303EB01131B682A
:101000006FF0604404EAD303536000F5D87303EB38
:1010100001131B6803F00203537200F5D87303EB4E
:1010200001135B6803F00F03937200F5D87303EBB1
:1010300001135B681B0AD37400F5D87303EB01132B
:101040009B68D37200F5D87303EB01139B681C0AED
:10105000147300F5D87303EB01139B681C0C5473D5
:1010600000F5D87303EB01139B681B0E937300F517
:10107000D87303EB0113DB68D37300F5D87303EB6C
:101080000113DB681C0A147400F5D87303EB011319
:10109000DB681C0C547400F5D87303EB0113DB6898
:1010A0001B0E937421B9C36843F02003C36003E0AF
:1010B000036943F02003036110BD10B50246002010
:1010C000936803F08063B3F1806F00D110E0936800
:1010D00003F00063B3F1006F01D1012008E09368D1
:1010E00003F08053B3F1805F01D1022000E00420BF
:1010F000042874D002F5C07303EB00131B6803F0DF
:10110000010402F5C07303EB00131C600B7A7BB97A
:101110004B7A0C8843EA445302F5C07404EB001484
:101120002468234302F5C07404EB0014236010E02C
:101130000B7A4C6843EAC4034C7A234302F5C0742B
:1011400004EB00142468234302F5C07404EB00147C
:1011500023608B7A03F00F038B7202F5C07303EBED
:1011600000135B6823F00F0402F5C07303EB001358
:101170005C6002F5C07303EB00135B688C7A234359
:1011800002F5C07404EB001463608B7B1C064B7B80
:1011900044EA03440B7B44EA0323CC7A234302F55D
:1011A000C07404EB0014A3608B7C1C064B7C44EAE7
:1011B00003440B7C44EA0323CC7B234302F5C07435
:1011C00004EB0014E36002F5C07303EB00131B682B
:1011D00043F0010402F5C07303EB00131C6010BD63
:1011E0000246002002EA01030BB1012000E00020CA
:1011F0007047000010B51349002205E0002401F1FA
:1012000092039C54531CDAB2082AF7DB91F8892028
:1012100002F5B8620368934212D1827A81F89A206B
:10122000002207E000F10B039C5C01F192039C5447
:10123000531CDAB2837A9342F4DC012281F89B20BA
:1012400010BD00005801002030B589B005461421BA
:1012500004A8FEF76EFF04AC95F8890000F5C8609D
:10126000206000202072607295F89000A07200202B
:1012700007E005F18A010A5C04F10B010A54411CE4
:10128000C8B295F890108142F3DC95F891000028DF
:1012900016DD04A90B48FFF710FF8835687A401E59
:1012A000687215F8880958B1207CE17BA27BCDE9F2
:1012B00000210290637B227BE17A03A001F0CAF84F
:1012C00009B030BD006400405B45524F425D5B4356
:1012D000414E5F54585D253032782C253032782CC1
:1012E000253032782C253032782C253032782C2558
:1012F0003032780D0A00000030B50B4680F890308F
:10130000002105E0555C00F18A0465544C1CE1B2F3
:101310009942F7DB012180F8911030BD014908693D
:1013200070470000580100200149C869704700005B
:101330005801002070B5144C0A2084F8890001205F
:101340002070C004E067E06FFFF757F905462946B3
:101350004FF07E50FEF782FFC4F88000E06FFFF789
:101360004CF905460949FEF747FFC4F88400002000
:1013700020720120607006486064064904F1540040
:1013800002F0B4F870BD00005801002083F9223E3D
:1013900040EF0700CDCCCC3D01460248027802B1B7
:1013A000017270475801002001460248027802B1DC
:1013B000817270475801002001460248027802B14C
:1013C000C16070475801002080F848100522427221
:1013D00070470000FEB50646FE4C6660324604F1DA
:1013E0005400216A02F084F894F88800A0B194F8BF
:1013F0009B0088B19620005D9521095DCDE9001024
:101400009420035D9320025D94F89210F2A001F005
:1014100021F8002084F89B00607A0F280DD2DFE8C5
:1014200000F0080D3456B6FED9E4FDFCFBFAF9F8DD
:10143000F700607808B10120607205E3607810B9A8
:101440000020A072E060A07A94F84A10884219D077
:10145000ECA103C9CDE90101A07A8DF8090001AA28
:1014600006212046FFF748FF02212046FFF7ACFF88
:10147000A27A94F84A10E5A000F0ECFFA07A84F874
:101480004A0001E002206072DEE2207A94F84910FE
:10149000884219D0E3A103C9CDE90101207A8DF872
:1014A000090001AA06212046FFF726FF0321204656
:1014B000FFF78AFF227A94F84910DCA000F0CAFFF7
:1014C000207A84F8490001E003206072BCE2207AAF
:1014D000012824D1E068FFF7A6F82064DAA103C947
:1014E000CDE90101206C000E8DF80600206C000C87
:1014F0008DF80700B4F84000000A8DF8080094F851
:1015000040008DF8090001AA06212046FFF7F4FEED
:1015100004212046FFF758FF206CE06436E0207A73
:1015200002282ED1E068A063D4F88410A06BFEF7E7
:1015300063FE0546FFF777F82065C549A06BFEF707
:101540005BFEE063C0A103C9CDE90101206D000E7F
:101550008DF80600206D000C8DF80700B4F85000DF
:10156000000A8DF8080094F850008DF8090001AACF
:1015700006212046FFF7C0FE06212046FFF724FF84
:1015800004E0207A032801D1E06820635CE2207A3D
:1015900001281AD1656CAFA103C9CDE90101280E5C
:1015A0008DF80600280C8DF80700280A8DF8080031
:1015B000E8B28DF8090001AA06212046FFF79CFE3B
:1015C00006212046FFF700FF03E006212046FFF733
:1015D000FBFE39E2A1A00068029002AA0421204685
:1015E000FFF78AFE072060722EE294F89B00002825
:1015F00050D0002084F89B0094F89A00052830D140
:101600009620005D3E282CD194F89200010607E058
:1016100019E2A0E18FE1A1E095E047E03BE0EBE1DA
:101620009320005D01EB00419420005D01EB00215F
:101630009520005D0844E066E06EFEF7D5FF0746A2
:10164000D4F88010FEF7D8FD05468549FEF7D4FD95
:10165000A0617F49A069FEF7CFFDE06108206072BC
:1016600018E006206072B4F8A000401CA4F8A000A6
:101670009620005D9521095D9422125DCDE900213F
:1016800002909320035D94F8922094F89A1075A02C
:1016900000F0E0FED8E183A00068029002AA0221D7
:1016A0002046FFF729FE09206072CDE194F89B00E7
:1016B000002847D0002084F89B0094F89A00052861
:1016C00027D19620005D3E2823D194F89200010690
:1016D0009320005D01EB00419420005D01EB0021AF
:1016E0009520005D08442067206FFEF77DFF0746C8
:1016F000D4F88010FEF780FD05465949FEF77CFDC1
:10170000206169492069FEF777FD60610A206072F7
:1017100018E008206072B4F89C00401CA4F89C00FB
:101720009620015D9520005D9422125DCDE9002098
:1017300002919320035D94F8922094F89A105BA094
:1017400000F088FE80E169A00068029002AA0221F0
:101750002046FFF7D1FD0B20607275E194F89B00E5
:10176000F8B1002084F89B0094F89A00052819D15C
:101770009620005D3E2815D194F892000106932032
:10178000005D01EB00419420005D01EB00219520FC
:10179000005D08446067606FFEF726FF20620C2042
:1017A0006072C7E00A206072B4F89E00401CA4F882
:1017B0009E009620005D9521095D9422125DCDE981
:1017C000002102909320035D94F8922094F89A10DF
:1017D00047A0ADE0580100205B45524F425D5B439E
:1017E000414E5F52585D253032782C253032782CAE
:1017F000253032782C253032782C253032780D0A7D
:101800000000000001000000000000005B45524F96
:10181000425D73657420656E3A2564202D3E202557
:10182000640D0A00004E0000000000005B45524FAE
:10183000425D736574206D6F64653A2564202D3EAA
:101840002025640D0A00000001FE000000000000D9
:10185000EBC918410204000000000000000500016F
:10186000DB0FC9405B45524F425D72656164207376
:1018700070656564206572722C206C656E3A256413
:101880002C20253032782C20253032782C20253021
:1018900032782C20253032782C20253032780D0AF1
:1018A0000000000000020000E12E65425B45524F3F
:1018B000425D7265616420616E676C65206572725D
:1018C0002C206C656E3A25642C20253032782C2033
:1018D000253032782C20253032782C202530327873
:1018E0002C20253032780D0A00000000000800008E
:1018F0005B45524F425D726561642063757272652B
:101900006E74206572722C206C656E3A25642C20F2
:10191000253032782C20253032782C202530327832
:101920002C20253032782C20253032780D0A00000A
:1019300000F090FD88E040F2191528128DF808009B
:10194000E8B28DF8090002AA02212046FFF7D4FC74
:101950000D20607278E094F89B0000284BD00020A6
:1019600084F89B0094F89A0005282BD19620005DFE
:101970003E2827D194F8920001069320005D01EBE8
:1019800000419420005D01EB00219520005D08449A
:10199000A067A06FFEF728FE6062A06FFEF724FE2E
:1019A0000746D4F88010FEF727FC05462949FEF7C4
:1019B00023FCA0622849A06AFEF71EFCE062012019
:1019C000607218E00C206072B4F8A200401CA4F809
:1019D000A2009620005D9521095D9422125DCDE95B
:1019E000002102909320035D94F8922094F89A10BD
:1019F0001AA000F02FFD27E094F89B0010B3002000
:101A000084F89B0094F89A00012807D194F892007A
:101A10003E2803D194F84800607213E00E206072F3
:101A20009620005D9521095D9422125DCDE900218B
:101A300002909320035D94F8922094F89A1017482E
:101A400000F008FD00E000BF00BF2046FFF7FCFBF0
:101A5000FEBD0000DB0FC940E12E65425B45524FE1
:101A6000425D7265616420746F7271756520657284
:101A7000722C206C656E3A25642C20253032782C2F
:101A800020253032782C20253032782C2025303219
:101A9000782C20253032780D0A000000C03700086D
:101AA0002DE9F041024600250026002000230024F5
:101AB000002791F803C00CF00F0591F803C00CF05B
:101AC000100CBCF1000F03D091F802C04CEA0505E0
:101AD00091F800C0BCF1000F31D0146800202BE059
:101AE0004FF0010C0CFA00F3B1F800C00CEA030649
:101AF0009E4220D183004FF00F0C0CFA03F7BC4339
:101B000005FA03FC4CEA040491F803C0BCF1280F69
:101B100006D14FF0010C0CFA00FCC2F814C00AE028
:101B200091F803C0BCF1480F05D14FF0010C0CFA3D
:101B300000FCC2F810C0401C0828D1D31460B1F8D2
:101B400000C0BCF1FF0F34DD546800202EE000F12E
:101B5000080C4FF0010808FA0CF3B1F800C00CEAC9
:101B600003069E4221D183004FF00F0C0CFA03F7BD
:101B7000BC4305FA03FC4CEA040491F803C0BCF131
:101B8000280F05D100F1080C08FA0CF8C2F81480EF
:101B900091F803C0BCF1480F07D100F1080C4FF0D9
:101BA000010808FA0CF8C2F81080401C0828CED3AF
:101BB0005460BDE8F0810000F0B50A46002300241F
:101BC0000021002500F00046B6F1004F02D11D4E65
:101BD000F16901E01B4E7168C0F3034583B200F464
:101BE0004016B6F5401F08D121F07061154E766899
:101BF00026F07066134F7E6012E000F48016B6F592
:101C0000801F06D1032606FA05F4A14341F0706156
:101C100006E0460D360103FA06F6B14341F0706165
:101C200022B1460D360103FA06F6314300F00046B4
:101C3000B6F1004F02D1034EF16101E0014E716037
:101C4000F0BD00000000014010B504460021204610
:101C5000FEF732FD02D284F0004010BD2046FCE7C2
:101C60002DE9FF5F04460E4617469846D4F800A0BB
:101C7000D6F800B0781E54F820000390781E56F86D
:101C80002000029000200190002519E054F8251052
:101C90004046FEF71BFD12D8681C54F82010404641
:101CA000FEF70AFD0BD854F825A056F825B0681C9D
:101CB00054F820000390681C56F8200002906D1C18
:101CC000B81EA842E2DC51460398FEF78FFA05469B
:101CD00059460298FEF78AFA29460090FEF7BEFAA6
:101CE000814651464046FEF781FA49460090FEF78C
:101CF00083FA05465946FEF727FA019040462168C7
:101D0000FEF7DAFC01D230680190781E54F82010FA
:101D10004046FEF7DBFC03D2781E56F82000019007
:101D2000019804B0BDE8F09F70B5002100230F2298
:101D3000C47804B3154C246804F4E064C4F5E0648A
:101D4000210AC1F10403CA40447804FA03F18478FB
:101D50001440214309010E4C0678A155047804F083
:101D60001F050124AC4005786D11AD0005F1E0259B
:101D7000C5F8004109E0047804F01F050124AC40D7
:101D8000044D0678761145F8264070BD0CED00E054
:101D900000E400E080E100E002490143024A1160F2
:101DA000704700000000FA050CED00E029B1064A7A
:101DB000D2690243044BDA6104E0034AD2698243E8
:101DC000014BDA61704700000010024029B1064A59
:101DD00012690243044B1A6104E0034A1269824308
:101DE000014B1A61704700000010024029B1064AF9
:101DF00092690243044B9A6104E0034A9269824368
:101E0000014B9A61704700000010024030B500217C
:101E10000022002400232D4D6D6805F00C0121B136
:101E2000042905D0082923D105E0294D056022E0C9
:101E3000274D05601FE0254D6D6805F47012234D98
:101E40006D6805F48034022505EB92421CB9214DE2
:101E5000554305600BE01D4D6D6805F400351DB15F
:101E60001C4D5543056002E0194D5543056002E0E5
:101E7000174D056000BF00BF144D6D6805F0F001FF
:101E80000909154D6B5C0568DD4045600F4D6D68B7
:101E900005F4E061090A104D6B5C4568DD40856022
:101EA0000A4D6D6805F46051C90A0B4D6B5C4568BD
:101EB000DD40C560054D6D6805F44041890B074D57
:101EC0006B5CC568B5FBF3F5056130BD00100240E1
:101ED00000127A0000093D003C0100204C01002066
:101EE0002DE9F05F05460F469046994600BFDFF8A2
:101EF00064B09BF80000532801D000F073FA00BFD3
:101F0000DFF850A0032D1FD2EFF3118108462021E6
:101F100081F3118800BF00BF05EB45020AF11801EB
:101F200001EBC2043DB12760C4F80480C4F80890F6
:101F300000212161E1600A996161C1B281F31188D8
:101F400000BF00BF002601E04FF0FF363046BDE87D
:101F5000F09F00001006002010B500F001F810BD41
:101F60000CB50020019000903348006840F48030A8
:101F70003149086000BF3048006800F4003000902C
:101F80000198401C0190009818B90198B0F5A06F15
:101F9000F1D12948006800F4003010B10120009010
:101FA00001E0002000900098012843D123480068F8
:101FB00040F01000214908600846006820F0030046
:101FC00008600846006840F0020008601A4840684F
:101FD000194948600846406848600846406840F42F
:101FE000806048600846406820F47C1048600846DD
:101FF000406840F4E81048600846006840F080708F
:10200000086000BF0C48006800F000700028F9D09C
:102010000948406820F003000749486008464068C6
:1020200040F00200486000BF0348406800F00C0028
:102030000828F9D10CBD0000001002400020024029
:1020400010B51348006840F00100114908600846C7
:102050004068104908400E494860084600680E492B
:1020600008400B4908600846006820F4802008609A
:102070000846406820F4FE0048604FF41F00886066
:10208000FFF76AFF4FF000600449086010BD0000D0
:10209000001002400000FFF8FFFFF6FE08ED00E030
:1020A0007FB505460C4601210846FFF77FFEADF8D7
:1020B0000850ADF804400020ADF80A00ADF8060065
:1020C00001A94FF0804000F04DF801221146900721
:1020D00000F03FF81C208DF8000001208DF8010071
:1020E0008DF802008DF803006846FFF71DFE012100
:1020F000880700F011F87FBD10B50121880700F0B6
:1021000017F828B10121880700F003F801F056F90B
:1021100010BDCA430282704721B1028842F0010219
:10212000028004E002884FF6FE731A400280704776
:1021300030B50246002000230024158A05EA010379
:10214000958905EA010413B10CB1012000E00020DB
:1021500030BD1AB183890B43838102E083898B43AD
:1021600083817047002202881D4B98420ED01D4B80
:1021700098420BD0B0F1804F08D01B4B984205D04D
:102180001A4B984202D01A4B984204D14FF68F73E3
:102190001A404B881A43174B984207D0164B984267
:1021A00004D04FF6FF431A40CB881A4302808B8835
:1021B00083850B8803850A4B98420BD0094B9842C4
:1021C00008D00E4B984205D00D4B984202D00D4BD3
:1021D000984201D10B7A0386012383827047000065
:1021E000002C014000340140000400400008004081
:1021F000000C00400010004000140040004001406E
:10220000004401400048014000B585B0012144F27E
:102210000400FFF7EBFD4FF40070ADF81000032051
:102220008DF8120018208DF8130004A91348FFF749
:1022300037FC4FF48060ADF8100004208DF81300D7
:1022400004A90E48FFF72CFC4FF416500090002014
:10225000ADF80400ADF80600ADF80800ADF80C00CC
:102260000820ADF80A006946054800F025F801216C
:10227000034800F007F805B000BD00000008014069
:102280000038014021B1828942F40052828104E089
:1022900082894DF6FF731A40828170470246002002
:1022A000B1F5007F00D100BF13880B400BB10120B6
:1022B00000E00020704700002DE9F04786B0054699
:1022C0000E460024A24600BFA1460027B08900B1F7
:1022D00000BF2F462C8A4CF6FF700440F088044360
:1022E0002C82AC894EF6F3100440B0883189084343
:1022F000718908430443AC81AC8A4FF6FF40044027
:10230000B0890443AC8201A8FFF780FD1F488742D3
:1023100002D1DDF810A001E0DDF80CA0A88900F4DE
:10232000004040B10AEBCA0000EB0A1031684900D6
:10233000B0FBF1F807E00AEBCA0000EB0A103168C5
:102340008900B0FBF1F86420B8FBF0F0040120092B
:10235000642101FB1089A88900F4004040B13220BB
:1023600000EBC900B0FBF1F000F00700044308E007
:10237000322000EB09106421B0FBF1F000F00F00F7
:1023800004432C8106B0BDE8F0870000003801400E
:10239000C1F308028280704710B501210448FEF79E
:1023A000F1FC18B101210248FEF7F8FB10BD000056
:1023B0000064004010B502210848FEF7E3FC58B164
:1023C00002210648FEF7EAFB054A00210348FEF712
:1023D000FCFD0348FEF70EFF10BD00000064004046
:1023E000FC01002070B5144CA8212046FDF7A1FE89
:1023F00003202061606111A0A0611349E1614FF4E5
:10240000806121620021A1626162E1620BA020660D
:102410000E4961661021A16600212167E1666167AE
:10242000002505E0C5F10F000949085C60556D1CE9
:10243000102DF7D370BD0000100600205465726D9A
:10244000696E616C00000000B8060020B80A002028
:10245000883600080FB4054B10B503A9044A02984A
:1024600000F014FC10BC5DF814FB00002D340008D3
:1024700050010020490050EAC12018BF04204A0D35
:1024800018BF40F0010040F2FF72B2EB515F08BF8D
:1024900040F00200012808BF052070472DE9F74FE2
:1024A000144694B00021C4E902111599079121F056
:1024B0000045C9498D4206DC1599C4E9000117B0F1
:1024C0000020BDE8F08FC549DFF814A3A9423CDD28
:1024D0000799C44E0029C44FC44A1599534619DDC3
:1024E000FDF79BFF554506D0C14AC24BFDF795FF4E
:1024F000C4E900010AE04FF0D352BE4BFDF78DFF57
:1025000032463B46FDF789FFC4E9000117B00120C0
:10251000BDE8F08FFDF7E0FE554506D0B44AB54B57
:10252000FDF7DAFEC4E900010AE04FF0D352B14BE7
:10253000FDF7D2FE32463B46FDF7CEFEC4E9000170
:1025400017B04FF0FF30BDE8F08FAB49A9421599A5
:1025500078DB21F0004183468846A84AA84BFDF766
:1025600062FF0022A74BFDF7B7FEFEF72BFA09909A
:10257000FEF748F806460F469C4A5346FDF753FFC0
:1025800043465A46FDF74CFF80468A46984A994B87
:1025900030463946FDF747FF2A0D01250B9242468A
:1025A0005346FDF73DFF032DC4E9000139D00B98D8
:1025B000C1F30A51401A05EB45111139814230DA55
:1025C0009148C346784400EB0510CDF80CA00C9060
:1025D000D0E9002330463946FDF725FF02460B4679
:1025E0000491069058460399FDF717FF80468A46E6
:1025F00002460B4658460399FDF70FFF049B069AC7
:10260000FDF70BFF83460C9803913946D0E902236E
:102610003046FDF708FF5A46039BFDF7FEFE6D1C92
:10262000BDE707980028A2BF099817B0BDE8F08F52
:10263000616881F000416160099817B04042BDE8CF
:10264000F08FFFE784461598C1F31301C0F30A50D9
:10265000A0F2F5304FEA601800F01F06C6F1200026
:10266000139000200690079041F4801E05206D46CF
:1026700076B1664A08EB00017A4452F8213002EB49
:102680008101B3404A68139922FA01F1194305E028
:102690005F4908EB0002794451F82210A1FB0E2794
:1026A000A1FB0C131A449A4234BF0123002303EB0D
:1026B000070A05EB8003D3E901B70F448F4234BF0B
:1026C0000121002193448B4411B1934502D903E0C9
:1026D000934501D2012100E00021C3E901B7514433
:1026E00045F82010011EA0F10100C1DC0298059FF1
:1026F00000F10050800F12900298DDE9035680002F
:10270000FDF780FF834628460D91FEF74EF96FF0E6
:102710001D02FEF733F9CDE90E013046FEF745F90B
:102720006FF03D02FEF72AF980468A463846FEF7EA
:102730003CF96FF05D02FEF721F907464246534629
:102740001191FDF7C9FDDDE90E23FDF7C5FD5A46E0
:102750000D9BFDF7C1FD00250E465A4628460D9BF0
:10276000FDF75BFEDDE90E23FDF757FE42465346BB
:10277000FDF753FE3A46119BFDF752FEDFF898A095
:10278000244A5346FDF74FFE07468846234A244B0A
:1027900031462846FDF747FE3A464346FDF79CFD85
:1027A000074688464FF0A842534631462846FDF773
:1027B0003AFE3A464346FDF78FFD159A12F0004F58
:1027C00004D0129A81F0004152421292C4E90001F1
:1027D000129817B0BDE8F08FFB21E93F7CD9024089
:1027E000FB21F93F7370032E8A19A33B000040546C
:1027F0003163621A61B4D03DFB21394183C8C96D90
:10280000305FE43F0000E03F08110000841000004A
:1028100066100000182D4454FB21F93D3326A61103
:10282000460B113C2DE9FF4D21F0004807460C46B0
:10283000B8F1795F08DAFEF7C5F8002801BF00207B
:10284000324904B0BDE8F08D3A4623461046194699
:10285000FDF7E9FD054602462D480E460B460621CA
:10286000784400F05DF82A463346FDF7DCFDDDE9EB
:10287000022382468B4638462146FDF7D4FD0446A6
:102880000F4652465B4628463146FDF7CCFD2246B0
:102890003B46FDF7C2FD07468A464FF0FF32284609
:1028A0003146FEF76BF81B4A90450ADA3A46534622
:1028B000FDF7B3FD04B00022BDE8F04D134BFDF76A
:1028C000AFBD154A4245A8BFA8F500154FF000045A
:1028D000B8BF124D22462B46FDF79FFD064688469F
:1028E00022462B4600200949FDF797FD04460D4678
:1028F0003A46534630464146FDF78FFD04B0224626
:102900002B46BDE8F04DFDF78BBD00000000F03F09
:102910003C0E00003333D33F0000E93F0000D23FBC
:102920002DE9F0414F1E00EBC7010446D1E900013B
:1029300015461E4637F006020DD02A463346FDF7EF
:1029400072FD7F1E04EBC703D3E90023FDF7C4FC2F
:1029500037F00602F1D1022F25D0042F13D0062F15
:1029600018BFBDE8F0812A463346FDF75CFDD4E987
:102970000A23FDF7B1FC2A463346FDF754FDD4E99E
:102980000823FDF7A9FC2A463346FDF74CFDD4E9A0
:102990000623FDF7A1FC2A463346FDF744FDD4E9A2
:1029A0000423FDF799FC2A463346FDF73CFDD4E9A4
:1029B0000223FDF791FC2A463346FDF734FDD4E9A6
:1029C0000023BDE8F041FDF787BC00002DE9FF4D75
:1029D000054621F0004084B00C46B0F1795F0BDA77
:1029E0002846FFF747FD042808BF00F06FF8284687
:1029F00008B02146BDE8F08D2A460B461046FDF78B
:102A000012FD06460F462A462346FDF70CFD80467A
:102A100026488A4632463B4605217844FFF780FF28
:102A200083461098029160B3214A224B404651469A
:102A3000FDF7F9FCCDE900015A4640465146029B9C
:102A4000FDF7F1FC82468846DDE906014FF0FF32D2
:102A5000FDF794FF52464346FDF7DFFC32463B4606
:102A6000FDF7E1FCDDE90623FDF7D7FCDDE90023F6
:102A7000FDF7D3FC08B02A462346BDE8F04DFDF72C
:102A8000CFBC0B465A4630463946FDF7CCFC084AC7
:102A9000084BFDF721FC42465346FDF7C4FC08B045
:102AA0002A462346BDE8F04DFDF716BC7A0D00001E
:102AB000495555555555C5BF0122FDF75FBF002249
:102AC000134610461146FDF720BD0000024A0020C3
:102AD0001107FDF753BF000001FDFFFF02E008C82A
:102AE000121F08C1002AFAD170477047002001E088
:102AF00001C1121F002AFBD1704700000149086084
:102B000070470000540100202DE9FF5F82B00021D2
:102B1000DDE90430020DDDF840B0034318D044F67F
:102B20001050A2F2FF3242431514119801281FD011
:102B3000A5EB0B00401C5FEA000A4FF000064E4F69
:102B4000DFF83891B046504615D5CAF1000413E0BD
:102B5000119801244AA3012801D16FEA0B010298C0
:102B6000119AC0E90031C0E9024206B0BDE8F09F09
:102B7000CBF10000DFE704460021404A491842EB50
:102B80000450CDE9001012E0E00707D032463B4682
:102B900040464946FDF747FC8046894632463B465B
:102BA00010461946FDF73FFC06460F466410002C00
:102BB000EAD1DDE90401DDE90023BAF1000F06DA0C
:102BC000FDF731FC42464B46FDF72DFC05E0FDF7D5
:102BD0009CFC42464B46FDF798FC04460E460022FC
:102BE000284BFDF791FE03D84FF0FF30014607E078
:102BF0000022254B20463146FDF76EFBFDF76CFEAB
:102C0000102409E0002C0ADB0A220023FDF77EFDD8
:102C1000039B30321A55641E50EA0102F2D1641C43
:102C2000039AC4F111031444119A012A03D001221A
:102C300008430DD10AE0084304D000204FF0110BE7
:102C4000119072E7A3EB0B056D1E0DE05B4504DDF3
:102C50004FF0000205F1010504E003DA4FF0000235
:102C6000A5F10105002AECD002981199C0E90231C2
:102C7000C0E9004579E70000000014400000F03F83
:102C8000300000000000F0430000E03F2DE9FF4F5E
:102C900095B09B468946064600250FE2252877D148
:102CA00000242746F84A0121059400E0044316F861
:102CB000013F203B01FA03F01042F7D130782A2877
:102CC00011D06FF02F033078A0F13002092A16D806
:102CD000059A44F0020402EB820203EB4202104424
:102CE000761C0590EFE759F8042B0592002A03DAC9
:102CF000504244F40054059044F00204761C3078AD
:102D00002E2816D116F8010F44F004042A280DD0FD
:102D10006FF02F023078A0F13003092B09D807EBB0
:102D2000870302EB4303C718761CF3E759F8047BCB
:102D3000761C30786C280FD006DC4C2817D0682819
:102D40000DD06A2814D104E0742810D07A280FD14D
:102D50000DE044F400140AE044F4801401E044F46B
:102D600040147278824202D104F58014761C761CDD
:102D7000307866280BD013DC582877D009DC00287F
:102D800075D04528F6D04628F4D047281AD19DE1C1
:102D900018E0632835D0642879D0652812D195E1F0
:102DA000702873D008DC6728F1D069286FD06E28AE
:102DB0000DD06F2806D1B5E073282CD0752875D0BA
:102DC000782874D05A46179990476D1C75E1C4F362
:102DD0000250022809D003280DD0D9F80010042889
:102DE0000DD00D6009F1040967E1D9F80010EA1768
:102DF000C1E90052F6E7D9F800100D80F2E70D7036
:102E0000F0E719F8041B8DF8001000208DF8010080
:102E1000EA46012003E059F804AB4FF0FF306107A8
:102E20004FF0000102D40DE008F101018846B942DB
:102E30000FDA8045F8DB1AF808100029F4D108E011
:102E400008F1010188468142FADB1AF808100029CE
:102E5000F6D105985B46A0EB080721463846179A3D
:102E600000F094FA284400EB080507E04DE029E162
:102E70000DE01AF8010B5A4617999047B8F101086E
:102E8000F7D25B4621463846179A13E142E00A2200
:102E90000092C4F302524FF0000A022A08D059F8F7
:102EA00004CB032A4FEAEC710AD00DE029E02AE0B6
:102EB00009F1070121F00702F2E802C1914609E099
:102EC0000FFA8CFC4FEAEC71042A03D14FFA8CFC08
:102ED0004FEAEC71002907DA0A460021DCF1000C08
:102EE00061EB02012D2202E0220504D52B228DF890
:102EF0000420012203E0E20701D02022F7E79046F8
:102F000059E00A2102E010220DE010214FF0000AE2
:102F100000910BE010224FF0000A44F0040408274F
:102F2000009203E008224FF0000A0092C4F302521C
:102F3000022A05D059F804CB0021032A08D009E061
:102F400009F1070121F00702F2E802C1914605E00C
:102F50001FFA8CFC042A01D10CF0FF0C4FF0000882
:102F6000220728D5702806D0009B83F0100353EA6F
:102F70000A0305D00EE040228DF80420012208E06B
:102F80005CEA010206D030228DF804208DF805009D
:102F900002229046009B83F0080353EA0A030AD1F9
:102FA0005CEA010201D1620705D530228DF80420C8
:102FB0004FF001087F1E582804D034A003900EA8BB
:102FC00002900DE036A0F9E753466046009AFDF7FF
:102FD0009DFB84460398825C0298401E029002701A
:102FE0005CEA0100F0D1029806A9081A00F1200A53
:102FF000600702D524F4803400E00127574502DD44
:10300000A7EB0A0000E0002000EB0A010090059801
:103010004144401A0590E00306D45B462146179AC6
:10302000059800F0B3F90544002706E001A85A46C8
:10303000C05D179990476D1C7F1C4745F6DBE00388
:103040000CD55B462146179A059800F09FF9054478
:1030500004E030205A46179990476D1C0099481E8D
:1030600000900029F5DC08E0029802995A460078A1
:10307000491C0291179990476D1CBAF10001AAF101
:10308000010AF1DC65E1000009280100303132332A
:103090003435363738396162636465660000000094
:1030A000303132333435363738394142434445467E
:1030B0000000000000F058F90544761C3078002824
:1030C0007FF4ECAD19B02846BDE8F08F620700D45C
:1030D000062709F1070222F0070CFCE80223E1466B
:1030E00003F000485FEA080C02D00FF2702C0DE0EC
:1030F0005FEA045C02D50FF2682C07E05FEAC47C4B
:1031000002D00FF2602C01E0AFF2700C4FF0FF38EC
:1031100023F00043CDF850C065280CD006DC4528CC
:1031200009D046281DD047283DD13DE0662818D05B
:1031300067287ED138E00021112F01DB112000E04B
:10314000781CCDE9000106A90EA8FFF7DDFCDDE93A
:103150000F010E9A03910021009207F1010A0491D8
:103160004DE04FF000400097CDE9011006A90EA8F0
:10317000FFF7CAFCDDE90F0203920E9B11990022B2
:10318000DDF80CA00093049211B9791C00EB010A40
:10319000B7EB0A0004D4C0F1FF3007F1010A049034
:1031A000AAEB0700019044E0012F00DA012700217B
:1031B000112F01DD112000E03846CDE9000106A9FC
:1031C0000EA8FFF7A1FCDDE90F010E9A0391002183
:1031D00004910092BA4621070CD40399514500DAB4
:1031E0008A46BAF1010F05DD009AAAF10101515C8E
:1031F000302908D0B84202DA10F1040F06DA0121B2
:10320000CDE9011015E0AAF10101E9E7002805DC8C
:10321000049901440491AAEB000102E0411C5145CC
:1032200000DD8A460499401A401C01904FF000408E
:103230000290200704D40198504501DBCDF80480AA
:1032400000208DF84F0002980DF14F07B0F1004FAC
:1032500025D02B200E9002984FF0020800280CDA9F
:10326000404202902D200E9007E00A210298FDF7BF
:1032700037FA3031029007F8011DB8F10001A8F1CA
:103280000108F2DC02980028EFD1791E0E98087030
:10329000307800F0200040F0450007F8020D12A839
:1032A000C01B00F107081498007800B1012000EB62
:1032B0000A01019801EBE07105984144401A401E53
:1032C0000590E00306D45B462146179A059800F066
:1032D0005DF805441498007818B15A46179990473C
:1032E0006D1CE00324D55B462146179A059800F033
:1032F0004DF805441CE00498002807DBDDE90301D4
:10330000884203DD0098405C179901E0179930204E
:103310005A469047049805F10105401C0490019815
:10332000401E019004D12E205A46179990476D1CDB
:10333000BAF10001AAF1010ADDDC05E017F8010B82
:103340005A46179990476D1CB8F10001A8F1010881
:10335000F4DC5B462146179A0598ABE62D00000089
:103360002B000000200000002DE9F041044600255C
:103370001E461746880404D405E039462020B0478D
:103380006D1C641EF9D52846BDE8F0812DE9F04199
:10339000044600251E469046C80301D5302700E0AC
:1033A0002027880404D505E041463846B0476D1C07
:1033B000641EF9D52846BDE8F08100002DE9F041F2
:1033C000154CFDF7B1FF0546FDF7A8FF0646284658
:1033D00000F03EF88046114801684046FCF70CFFBB
:1033E0000F490860304600F063F880460D480168D8
:1033F0004046FCF701FF0C49086008460168084890
:103400000068FCF7A1FE07463846FDF7D5FF2046C9
:10341000FDF7E0FFBDE8F0816F12833A1000002055
:103420000C000020080000200400002070B50446B5
:103430000D46E1B20548FEF7ABFF00BF402103484F
:10344000FEF72CFF0028F9D0204670BD003801405F
:103450002DE9F0410546002610492846FDF736F9CA
:1034600002D24FF07E5607E00D492846FDF724F9B9
:1034700001D20C4E00E000262846FEF7E5FB804610
:103480004346252208490948FEF7EAFB074631462C
:10349000FCF7B2FE04462046BDE8F0810AD7233C83
:1034A0000AD723BC000080BFA80000201400002021
:1034B0002DE9F14F82B00298FDF7CEF8804600F07A
:1034C0008BF804460D4608480068FDF7C5F8064627
:1034D00022462B46FCF7A7FF8246FDF7D0F8019065
:1034E0000198BDE8FE8F0000000000204160704799
:1034F0002DE9F04704460D4616462660E560D4E9FE
:103500000001FCF721FE074639462068FCF7A6FEBD
:10351000A0604FF07E50A168FCF768FE81466169AB
:10352000FCF76AFE0746D4E90201FCF765FE804617
:103530003946FCF709FE2061206960612069BDE819
:10354000F0870000FDF788FAFDF7F4FE0BA0FEF708
:1035500081FF0AA0FEF77EFF08A0FEF77BFF0DA00B
:10356000FEF778FF0120FDF717FF0020FDF724FF8D
:103570000120FDF719FF00BFFEE700005B4D414948
:103580004E5D62737020696E6974206F6B210D0A45
:10359000000000005B4D41494E5D73746172742000
:1035A0006D6F726F74210D0A0000000008B50220D3
:1035B0004302034A03A100900120FEF791FC08BDDD
:1035C000100200204A53636F70655F693269326987
:1035D000326932693269320000B5254B21F0004270
:1035E00087B09A4203DC0022134600922BE0214B65
:1035F0009A4208D140B94FF00100FFF77FFAFFF778
:103600005EFA07B000BD03DBFFF756FA07B000BD56
:1036100002AAFEF743FF10F003014FF001000DD0A6
:10362000012914D002291AD00DF1080C9CE80F00D2
:10363000FFF7F8F807B081F0004100BD0DF1080C6C
:1036400000909CE80F00FFF7C1F907B000BD0DF135
:10365000080C9CE80F00FFF7E5F807B000BD0DF17E
:10366000080C00909CE80F00FFF7B0F9E2E70000BB
:10367000FB21E93F0000F07F3031323334353637FB
:10368000383941424344454600000000000054548C
:1036900052205245474745530000000000000000FB
:1036A0004C5555555555A53F7751C1166CC156BF60
:1036B0009015CB19A001FA3EAD529C804F7E92BE70
:1036C000C4B1B4BD9EEE213ED43888BEE9FAA8BD8F
:1036D00000004054FB21F93F3163621A61B4D03DD0
:1036E0000000601A61B4D03D7370032E8A19A33BA9
:1036F0000000002E8A19A33BC14920259A837B39FB
:1037000000000000000000006E83F9A22915444E5D
:10371000D15727FCC0DD34F5999562DB4190433CDD
:10372000AB6351FE61C5BBDE3A6E24B7E0D24D42B9
:10373000EA2E49061C92D1091CEB1DFE3EA729B1B9
:10374000F53582E88444BB2E26709CE9417E5FB447
:1037500039D69139F43953838B5F849C3B28F9BD6A
:10376000FF97F81F0F9805DE8B112FEF1F6D0A5A78
:10377000CF7E366DB709CB27663F464F2DEA5F9E59
:10378000C7BA27757BF1E5EBF739073DEA92528A14
:10379000B15FFB6B085D8D1FA6F810111111813F01
:1037A000D561C119A0012ABF7DFEB157E31DC73EF7
:1037B000EB9C2B8AE6E55ABE7CD5CF5A3AD9E53D3B
:1037C0005B45524F425D63616E5F72782065727235
:1037D00021207278206D657373616765202C206CE1
:1037E000656E3A25642C20253032782C2025303225
:1037F000782C20253032782C20253032782C20254A
:103800003032780D0A00000028380008000000203F
:1038100058010000020A000864390008580100201D
:10382000700D0000EC2A00082163A5C343803F18F7
:10383000246666863FCDCCCC3DEC51383F9A99B991
:103840003F1F850B409A993940EC51684033338BC8
:10385000405C8FA21027B940C3F5D0401EE8402934
:103860005CFF18201F0B4148E11641666622418526
:10387000EB2D41A4703941AE474541CDCC5041E1DB
:103880007A5C41180A684114AE734133337F1C1AC5
:1038900085081E8B413D0A91201E9641D7A39C3876
:1038A0001EA241713DA8281EAE410AD7B3041AB921
:1038B000281ABF441AC5281ACB5C1AD01C134842D8
:1038C0001817802043713D3343E1BA45437B544F81
:1038D0004352F85743EC515D04382262435C8F69D0
:1038E00043291C704333B37443E1FA7943142E7EA9
:1038F00043F6088143B81E824348E18404156606F6
:103900008843101C208943C3358B43C3758C439A6D
:10391000B98D43140E8F43856B914333339243101B
:103920000CC09343E19A9643A4D09643181740964F
:103930004333139843D7A39843C3D5974352389939
:10394000438F229A48400B9C43B89E9E43850B9E12
:10395000432D010203040480090607080902040636
:04396000080000005B
:04000005080000ED02
:00000001FF
